:030000000220EEED
:0C20EE00787FE4F6D8FD758121022135D1
:052537004200870000D6
:09255600D291D290C291C29022F0
:09255F00C290C291D290D29122E7
:0D000E00C290A2019291D290C290D2912294
:1023B500D290A291300101B3502C900088E004F036
:1023C5007006900087E004F0900087E0FEA3E0FF30
:1023D500E4FCFD7BFE7AFFF9F8C31217A450D3E4A1
:0923E500900087F0A3F0C29022E1
:1024A000E4FEEEC39408748094805015C290EF301F
:1024B000E704D2918002C291D290EF25E0FF0E8016
:0324C000E1C290E6
:0124C30022F6
:1024E600E4FEEEC39408748094805011D290EF25D8
:0D24F600E0FF3091034401FFC2900E80E52D
:0125030022B5
:10250400252E34660054656D70657261747572654C
:0C2514003A0048756D69646974793A00FA
:0E253C0041006F0042006D000042006B000085
:10252000758911E4F58CF58AD28CD2A9F58DF58BDD
:07253000D28ED2ABD2AF2224
:03000B00021CE4F0
:101CE400C0E0C0F0C083C082C0D075D000C000C0C6
:101CF40001C002C003C004C005C006C007758CF053
:101D0400758ABDD28CD2A990006FE0547F60030223
:101D14001DD1300A5E12224E90006DEEF0A3EFF05A
:101D240090000E74FFF0A37425F0A37404F09000E7
:101D34006DE0FCA3E0FDE41213B7E4FBFA7920782C
:101D4400431213157BB17ABF796C78BE12122190BD
:101D540000111217BA7B017A0079701218C67B0140
:101D64007A0079707D027C00E4FF121DF2C292D2E7
:101D740093805812224E90006BEEF0A3EFF0900087
:101D84000E74FFF0A37425F0A37404F090006CE0CB
:101D94002483FD90006BE034E8FCE41213B77B006D
:101DA4007A80797C78431213159000111217BA7B4C
:101DB400017A0079701218C67B017A0079707D0669
:101DC4007C00E4FF121DF2D292C293B20A90006F1B
:101DD400E004F0D007D006D005D004D003D002D060
:0E1DE40001D000D0D0D082D083D0F0D0E03239
:03001B0002254B70
:0B254B00758D00758B00D28ED2AB3274
:10244C001220577BFF7A257909E4FDFCFF121DF25F
:10245C007BFF7A2579167D047C00E4FF121DF27F48
:0D246C000C1224C4C292D29312252080FECF
:10001E00256C7500000000000000000000000000CC
:10002E0000000000000000000000000000000000C2
:10003E00000000004042CC0000445454547F5454FD
:10004E005444400000007F201000FF1515155595F3
:10005E007F000000404042CC0040A09E8282829EE3
:10006E00A02020000000003F908840432C1028461E
:10007E0041808000001715D55557557D555755D5DC
:10008E00151700004040407F555555555555557F25
:10009E0040404000108C4404E40495A6442414848B
:1000AE0044940C0002027A414143427E4242424352
:1000BE00F80000000484E45C44C40002F2828282F0
:1000CE00FE80800002017F10103F000808080848DB
:1000DE0088403F000000F8888888880808FF0809D3
:1000EE000AC8080080601F0010201F8040211618CB
:1000FE002641F800080808F80808081010FF10102C
:10010E0010F000001030101F088848300E0140809B
:10011E00403F00004042CC0000445454547F54549D
:10012E005444400000007F201000FF151515559512
:10013E007F00000088681FC80810C85452D112945E
:10014E0008D01000091909FF0500FF1292FF005F89
:10015E00807F0000000000000001E21CE0000000B3
:10016E0000000000804020100C03000000030C3043
:10017E0040808000000202C2020202FE828282825F
:10018E00820200004040407F4040407F404040405F
:10019E00404040000484E45C44C42010E82724E47A
:1001AE00342CE00002017F10103F80601F09093FD0
:1001BE0049897F004030EF246448487F4848487F93
:1001CE004848400001017F211100FF494949494932
:1001DE00FF0000004042CC0000809E9292929292CC
:1001EE009E80000000007F2094844424140F142469
:1001FE00448484000000000000000000002F000076
:10020E0000000700070000147F147F1400242A7FCB
:10021E002A1200626408132300364955225000004A
:10022E000503000000001C224100000041221C00BA
:10023E000014083E08140008083E0808000000A03C
:10024E006000000808080808000060600000002038
:10025E0010080402003E5149453E0000427F400016
:10026E00004261514946002141454B31001814129C
:10027E007F10002745454539003C4A494930000169
:10028E007109050300364949493600064949291EB8
:10029E00000036360000000056360000000814221A
:1002AE00410000141414141400004122140800021A
:1002BE000151090600324959513E007C1211127C3F
:1002CE00007F49494936003E41414122007F41416C
:1002DE00221C007F49494941007F09090901003E5E
:1002EE004149497A007F0808087F0000417F41009C
:1002FE00002040413F01007F08142241007F404012
:10030E004040007F020C027F007F0408107F003EF9
:10031E004141413E007F09090906003E4151215EDF
:10032E00007F091929460046494949310001017FDC
:10033E000101003F4040403F001F2040201F003F72
:10034E004038403F00631408146300070870080724
:10035E0000615149454300007F41410000552A5537
:10036E002A55000041417F000004020102040040B2
:10037E0040404040000001020400002054545478D4
:10038E00007F4844443800384444442000384444F4
:10039E00487F00385454541800087E090102001892
:1003AE00A4A4A47C007F080404780000447D4000CF
:1003BE00004080847D00007F102844000000417FB3
:1003CE004000007C04180478007C0804047800388F
:1003DE004444443800FC242424180018242418FC17
:1003EE00007C0804040800485454542000043F4480
:1003FE004020003C4040207C001C2040201C003C43
:10040E004030403C004428102844001CA0A0A07C92
:10041E00004464544C4414141414141400000000CA
:10042E00000000000000000000000000000000F8C6
:10043E0000000000000000333000000000100C0629
:10044E00100C0600000000000000000040C07840C4
:10045E00C0784000043F04043F040400007088FC90
:10046E0008300000001820FF211E0000F008F000E8
:10047E00E018000000211C031E211E0000F0088859
:10048E00700000001E2123241927211010160E00C3
:10049E00000000000000000000000000000000E06E
:1004AE001804020000000007182040000002041883
:1004BE00E00000000040201807000000404080F0DF
:1004CE00804040000202010F01020200000000F015
:1004DE00000000000101011F0101010000000000E9
:1004EE000000000080B0700000000000000000005E
:1004FE0000000000000101010101010100000000E7
:10050E00000000000030300000000000000000007D
:10051E0080601804006018060100000000E010085A
:10052E000810E000000F102020100F00001010F82F
:10053E00000000000020203F20200000007008086E
:10054E0008887000003028242221300000300888EE
:10055E00884830000018202020110E000000C02016
:10056E0010F8000000070424243F240000F8088837
:10057E00880808000019212020110E0000E01088C4
:10058E0088180000000F112020110E0000380808F6
:10059E00C83808000000003F000000000070880806
:1005AE0008887000001C222121221C0000E0100887
:1005BE000810E0000000312222110F00000000C0E0
:1005CE00C00000000000003030000000000000807D
:1005DE00000000000000806000000000000080406D
:1005EE002010080000010204081020004040404086
:1005FE0040404000040404040404040000081020D9
:10060E00408000000020100804020100007048081D
:10061E000808F0000000003036010000C030C82885
:10062E00E810E0000718272423140B000000C03840
:10063E00E0000000203C23020227382008F88888BA
:10064E0088700000203F202020110E00C0300808C6
:10065E0008083800071820202010080008F808089D
:10066E000810E000203F202020100F0008F8888896
:10067E00E8081000203F20202320180008F8888862
:10068E00E8081000203F200003000000C0300808DA
:10069E000838000007182020221E020008F8080063
:1006AE000008F808203F210101213F20000808F82A
:1006BE00080800000020203F20200000000008084D
:1006CE00F8080800C08080807F00000008F888C00D
:1006DE0028180800203F20012638200008F80800BE
:1006EE0000000000203F20202020300008F8F800F5
:1006FE00F8F80800203F003F003F200008F830C007
:10070E000008F808203F200007183F00E0100808F6
:10071E000810E0000F10202020100F0008F8080825
:10072E000808F000203F210101010000E010080838
:10073E000810E0000F18242438504F0008F888885D
:10074E0088887000203F2000030C3020007088083D
:10075E00080838000038202121221C00180808F84B
:10076E00080818000000203F2000000008F80800CC
:10077E000008F808001F202020201F00087888009D
:10078E0000C83808000007380E010000F80800F80D
:10079E000008F800033C0700073C030008186880B7
:1007AE008068180820302C03032C30200838C8002D
:1007BE00C83808000000203F20000000100808087C
:1007CE00C83808002038262120201800000000FE1E
:1007DE00020202000000007F40404000000C30C0CA
:1007EE0000000000000000010638C00000020202F6
:1007FE00FE000000004040407F00000000000402A8
:10080E0002020400000000000000000000000000D2
:10081E0000000000808080808080808000020204C2
:10082E0000000000000000000000000000008080BA
:10083E00808000000019242222223F2008F8008028
:10084E0080000000003F112020110E0000000080EB
:10085E0080800000000E112020201100000000807A
:10086E008088F800000E112020103F2000008080AC
:10087E0080800000001F222222221300008080F0C0
:10088E00888888180020203F2020000000008080EB
:10089E0080808000006B94949493600008F8008030
:1008AE0080800000203F210000203F20008098988B
:1008BE00000000000020203F2020000000000080EB
:1008CE009898000000C08080807F000008F800002B
:1008DE0080808000203F24022D302000000808F880
:1008EE00000000000020203F20200000808080803B
:1008FE0080808000203F20003F20003F80800080CD
:10090E0080800000203F210000203F2000008080DA
:10091E0080800000001F202020201F00808000808B
:10092E008000000080FFA12020110E00000000803A
:10093E0080808000000E112020A0FF80808080002B
:10094E008080800020203F21200001000000808058
:10095E00808080000033242424241900008080E04D
:10096E00808000000000001F20200000808000001A
:10097E0000808000001F202020103F2080808000FB
:10098E000080808000010E3008060100808000800B
:10099E00008080800F300C030C300F000080800030
:1009AE00808080000020312E0E312000808080005B
:1009BE000080808080818E7018060100008080800B
:1009CE00808080000021302C2221300000000000A9
:1009DE00807C020200000000003F4040000000004A
:1009EE00FF00000000000000FF0000000002027C7B
:1009FE00800000000040403F0000000000060101A2
:100A0E0002020404000000000000000000030509BB
:100A1E0011FF118905C300E000F000F8000000008E
:100A2E000000004428FF11AA44000000000000004E
:100A3E0000000000000000000000000000000000A8
:100A4E000000000000000000000000000000000098
:100A5E000000000000000000000000000000000088
:100A6E0000000000000083013844829292740183DA
:100A7E00000000000000007C44C7017D7D7D7D01EB
:100A8E007D7D7D7D017D7D7D7D01FF00000000006F
:100A9E000001000100010001000100010000000042
:100AAE000000000000010100000000000000000036
:100ABE000000000000000000000000000000000028
:100ACE000000000000000000000000000000000018
:100ADE000000000000000000000000000000000008
:100AEE0000000000000001010000000000000101F4
:100AFE0000000000000000000001010101010101E1
:100B0E0001010101010101010101010000000000CC
:100B1E000000000000404040404000006D6D6D6DD3
:100B2E006D0000606060606000004040404040002A
:100B3E0000000000000000000000000000000000A7
:100B4E000000000000000000000000000000000097
:100B5E000000000000000000000000000000000087
:100B6E000000000000000000000000000000000077
:100B7E000000000000000000000000000000000067
:100B8E000000000000000000000000000000000057
:100B9E000000000000DBDBDBDBDB0000DBDBDBDB94
:100BAE00DB0000DBDBDBDBDB0000DBDBDBDBDB00CE
:100BBE0000DADADADADA0000D8D8D8D8D80000C0ED
:100BCE00C0C0C0C00000C0C0C0C0C00000C0C0C017
:100BDE00C0C00000C0C0C0C0C00000808080808047
:100BEE0000000000000000000000000000000000F7
:100BFE0000000000000000000000000000000000E7
:100C0E0000000000000000000000000000000000D6
:100C1E000000000000060606060600000606060690
:100C2E000600000606060606000006060606060074
:100C3E0000060606E6662000060686060600000684
:100C4E00060606860000060606060600008686864E
:100C5E00868680808686068686C0C086868606063E
:100C6E00D0307606060606000006060606060000CA
:100C7E00060606060600000606060606000006061E
:100C8E000606060000000000000000000000000044
:100C9E000000000000000000000000000000000046
:100CAE000000000000000000000000000000000036
:100CBE00000000000000601C00FE00010200C418CD
:100CCE0020029E63B20E00FF8181FF000080403043
:100CDE000F00000000FF0023EAAABFAAEA033F00AC
:100CEE00FF000000000000000000000000000000F7
:100CFE0000000000000000000000000000000000E6
:100D0E000000000000000000000000000000008055
:100D1E008080000000000080808000000000000045
:100D2E0000000000000000000000000000000000B5
:100D3E00000000000E0C080000010101010100007E
:100D4E000001000000010081808081808180808010
:100D5E0080010101010000000100000001000101FD
:100D6E00090C0E0000000000000000000000000052
:100D7E0000000000C0C0C0C0C0C0C0C0C0C0C0C065
:100D8E00C0C0C0C0C0C0C0C0C0C0C000001E214096
:100D9E004050215E001E21404050215E00000000A8
:100DAE000000000000000000000000000000000035
:100DBE000000000000000000000000000000000025
:100DCE0000000000000000FFFFC1C1FFFFC1C1FF16
:100DDE00FF00000000000000000000000000000006
:100DEE0000000000000000000000000000000000F5
:100DFE0000000000FFFF80FCF3EFF3FC80FF80EEAD
:100E0E00EEEEF5FBFF9CBEB6B688FF0000030509AB
:100E1E0011FF118905C300E000F000F8000000008A
:100E2E000000004428FF11AA44000000000000004A
:100E3E0000000000000000000000000000000000A4
:100E4E000000000000000000000000000000000094
:100E5E000000000000000000000000000000000084
:100E6E0000000000000083013844829292740183D6
:100E7E00000000000000007C44FF017D7D7D7D01AF
:100E8E007D7D7D7D017D7D7D7D01FF00000000006B
:100E9E00000100010001000100010001000000003E
:100EAE000000000000010100000000000000000032
:100EBE000000000000000000000000000000000024
:100ECE000000000000000000000000000000000014
:100EDE000000000000000000000000000000000004
:100EEE0000000000000001010000000000000101F0
:100EFE0000000000000000000001010101010101DD
:100F0E0001010101010101010101010000000000C8
:100F1E0000000000000000000000000000000000C3
:100F2E000000000000000000000000F8080808089B
:100F3E0008080800F8186080000000806018F800AB
:100F4E0000002020F8000000000000E01008080853
:100F5E000810E00000002020F80000000000000053
:100F6E000000000000080808080888681800000043
:100F7E000000000000000000000000000000000063
:100F8E000000000000000000000000000000000053
:100F9E000000000000000000000000000000000043
:100FAE0000000000000000000000007F01010101B0
:100FBE00010100007F0000010618060100007F00FD
:100FCE00000040407F4040000000001F2040404095
:100FDE0040201F00000040407F4040000000000005
:100FEE006000000000000060180601000000000014
:100FFE0000000000000000000000000000000000E3
:10100E0000000000000000000000000000000000D2
:10101E0000000000000000000000000000000000C2
:10102E0000000000000000000000000000000000B2
:10103E000040202020C00000E0202020E000000022
:10104E0040E00000000060202020E00000000000D2
:10105E00E0202020E0000000000040202020C00002
:10106E000040202020C00000000000000000000012
:10107E000000000000000000000000000000000062
:10108E000000000000000000000000000000000052
:10109E000000000000000000000000000000000042
:1010AE000000000000000000000000000000000032
:1010BE00000C0A0A090C00000F0808080F000000B7
:1010CE00080F080000000C0809090E00000C0000B3
:1010DE000F0909090F00000C00000C0A0A090C0088
:1010EE00000C0A0A090C00000000000000000000BD
:1010FE0000000000000000000000000000000000E2
:10110E0000000000000000000000000000000000D1
:10111E0000000000000000000000000000000000C1
:10112E0000000000000000000000000000000000B1
:10113E0000000000000000000000000000000000A1
:10114E000000000000000000808080808080808091
:10115E000000000000000000000000000000000081
:10116E000000000000000000000000000000000071
:10117E000000000000000000000000000000000061
:10118E00000000000000000000000000007F030CC3
:10119E00300C037F00003854545800007C0404784F
:1011AE0000003C40407C00000000000000000000F9
:1011BE000000000000000000000000000000000021
:1011CE000000000000000000FFAAAAAA280800FFE5
:1011DE000000000000000000000000000000000001
:1011EE0000000000000000000000000000000000F1
:1011FE0000000000007F030C300C037F0000264926
:0C120E0049493200007F020408107F00F4
:10237800A3E0FEA3E02422F58274003EF583E493F3
:01238800FF55
:10238900900014EFF01225567F781224A0C2011292
:1023990023B57F401224A0C2011223B5900014E096
:0C23A900FF1224A0C2011223B502255F20
:0423EE00EF24B0FF29
:1023F200900015EFF01225567F781224A0C2011228
:1024020023B5E4FF1224A0C2011223B5900015E007
:0C241200FF1224A0C2011223B502255FB6
:07241E00E0FFA3A3E004FDB1
:10242500900014EFF0ED24B0FF1223F2900014E0B9
:1024350054F0C4540F4410FF1223F2900014E054DA
:072445000F4401FF0223F226
:05220000900000EFF06A
:10220500E4A3F0900001E0FFC3940874809480502B
:10221500371223EE7F011223F27F101223F2E4908E
:102225000002F0900002E0C3948074809480501006
:10223500900000E0FF122389900002E004F080E3A3
:08224500900001E004F080BBF1
:01224D00226E
:10233000E4900089F0900089E0FFC39408748094D1
:102340008050341223EE7F011223F27F101223F209
:10235000E490008AF090008AE0C3948074809480B6
:10236000500DE4FF12238990008AE004F080E6908B
:072370000089E004F080BECB
:012377002243
:102057007FAE1223F2E4FF1223F27F101223F27FE6
:10206700401223F27F811223F27FCF1223F27FA146
:102077001223F27FC81223F27FA61223F27FA8123F
:1020870023F27F3F1223F27FD31223F2E4FF1223BE
:10209700F27FD51223F27F801223F27FD91223F227
:1020A7007FF11223F27FDA1223F27F121223F27FDB
:1020B700DB1223F27F401223F27F201223F27F02EA
:1020C7001223F27F8D1223F27F141223F27FA412C0
:1020D70023F27FA61223F27FAF1223F2E4FF12222C
:0720E70000E4FDFF022425C7
:101FAB00900078EFF0A3ECF0A3EDF0A3EBF0A3EA35
:041FBB00F0A3E9F0B6
:101FBF00E4A3F0A3F0A3F090007BE0FBA3E0FAA36F
:101FCF00E0F9900080E0F58275830012170B6077BF
:101FDF0024E090007EF0900078E0D3947E7480949B
:101FEF00804010E4F090007AE004F07006900079E1
:101FFF00E004F0900078E0FFA3A3E0FD122425E4B5
:10200F0090007FF090007FE0FFC39406748094806F
:10201F00502590007EE075F006A42402F582E5F0CD
:10202F003402F583E5822FF582E435831223849001
:10203F00007FE004F080CD900078E02406F090005F
:07204F0080E004F0021FC64F
:012056002267
:0B229C0090003BEFF0A3ECF0A3EDF08E
:1022A70090000E74FFF0A37400F0A3741EF090006A
:1022B7003EE0FCA3E0FDA3E0FEA3E0FF90001112C7
:1022C70017BA7B017A0079421218C690003BE0FFEB
:0F22D700A3E0FCA3E0FD7B017A007942021FAB7C
:101DF20090000BEFF0A3ECF0A3EDF0A3EBF0A3EA5D
:041E0200F0A3E9F070
:101E0600E4A3F0A3F0A3F090000EE0FBA3E0FAA396
:101E1600E0F9900013E0F58275830012170B70034A
:101E2600021EDE24E0900011F090000BE0D39478BF
:101E3600748094804010E4F090000DE004F0700689
:101E460090000CE004F090000BE0FFA3A3E0FD126D
:101E56002425E4900012F0900012E0FFC394087469
:101E66008094805025900011E075F010A42FF58223
:101E7600E435F0F583E582242AF582E583340412FD
:101E86002384900012E004F080CD90000B12241EF3
:101E9600E4900012F0900012E0FFC394087480945E
:101EA600805025900011E075F010A42FF582E435DE
:101EB600F0F583E5822432F582E583340412238427
:101EC600900012E004F080CD90000BE02408F09022
:081ED6000013E004F0021E0DF0
:011EDE0022E1
:0B22E60090004CEFF0A3ECF0A3EDF033
:1022F10090000E74FFF0A37400F0A3741EF0900020
:102301004FE0FCA3E0FDA3E0FEA3E0FF900011126B
:1023110017BA7B017A0079531218C690004CE0FF7E
:0F232100A3E0FCA3E0FD7B017A007953021DF2DB
:0C217A00900081EFF0F9A3ECF0A3EDF071
:10218600E4A3F0AE02EB7805C333CE33CED8F9FF25
:10219600900085EEF0A3EFF0AF01122425E4900045
:1021A60084F0900084E0C3941074809480501912D7
:1021B6002378900086E004F07006900085E004F035
:1021C600900084E004F080DA90008112241EE490EE
:1021D6000084F0900084E0C39410748094805019B9
:1021E600122378900086E004F07006900085E004E3
:0921F600F0900084E004F080DAAE
:0121FF0022BD
:101EDF0090005DEFF0A3ECF0A3EDF0A3EAF0A3EB1D
:011EEF00F002
:101EF000E4900067F0A3F0900062E0FAA3E0FB7CBE
:101F0000007D08FFAE0212174AED4C7011FC7D08EF
:101F1000AF03AE0212174A90006AEFF080159000EE
:101F200062E0FEA3E0FF7C007D0812174AEF0490F8
:101F3000006AF090005EA3E090006AF090006AE012
:101F4000FDFFD3900063E09F7480F8900062E0642E
:101F50008098405690005DE0FF12242590005DE0DF
:101F6000900069F0900069E0FFD3900061E09F74F9
:101F700080F8900060E06480984027900064E0FB67
:101F8000A3E0FAA3E0F9A3E475F00112178085F04D
:101F900082F58312170BFF122389900069E004F089
:0A1FA00080C290006AE004F0809215
:011FAA002214
:1024C400900000EFF01225567F901224A0C2011252
:1024D40023B5900000E0FF1224A0C2011223B5022C
:0224E400255F72
:10224E00E490000BF0A3F01225567F911224A0C249
:10225E00011223B51224E6EF90000BF0A3E4F0C2B6
:10226E000112000E1224E690000BE0F0A3E04FF0F6
:10227E00C20112000E1224E690000DEFF0C2011200
:0D228E00000E12255F90000BE0FEA3E0FFA4
:01229B002220
:10121A00021425E86480F8E933E83360110460F0C9
:10122A00ED33EC337009E8FCE9FDEAFEEBFF22043A
:10123A0060DED3EB9FEA9EE99DE8C2E78CF0C2F735
:10124A0095F0400CE8CCF8E9CDF9EACEFAEBCFFB01
:10125A001213F085D0F05804700320D5B3E8047057
:10126A00075002B2D502142F92D5EC0460F7E4CCF1
:10127A00C0E0C398F8603B94186008400DD0E0FBCA
:10128A00021407E4FBFAC9FC8028E830E406E4C942
:10129A00FBE4CAFCE830E305E4C9CACBFCE854071E
:1012AA006010F8C3E913F9EA13FAEB13FBEC13FC29
:1012BA00D8F130F52FC3E49CFCEF9BFFEE9AFEEDCC
:1012CA0099FDD0E0FBEF4E4D4C701222DB03021465
:1012DA002CEC2CFCEF33FFEE33FEED33FDED30E763
:1012EA00EB021407EF2BFFEE3AFEED39FDD0E0FBDF
:1012FA0050130BBB000302142FED13FDEE13FEEF88
:08130A0013FFEC13FC021407B1
:1013120002142FEC5D046005E859047003021425E1
:101322001213F0580460F6EC4860F2EC7004FDFE13
:10133200FF22C860DB2481C85009C39860025006AE
:1013420002142C9850CAF582E9294B4A7005AB82E7
:1013520002141B75F0007C1A7880C3EF9BEE9AEDA5
:1013620099400DC3EF9BFFEE9AFEED99FDE842F026
:10137200DC23ACF0D0E0FFD0E0FED0E0FDAB822079
:10138200E7101BEB60BAEC2CFCEF33FFEE33FEED03
:1013920033FD021407E803F830E705C0F075F000EA
:1013A200EF2FFFEE33FEED33FD40B830E7C280AAE7
:1013B20075F020800E75F010800575F0087D007EB6
:1013C200007F003392D530D503121796EC334010CC
:1013D200EF33FFEE33FEED33FDEC33FCD5F0ED22BF
:0E13E200E5F0247EA2D513CC92E7CDCEFF22FB
:10186100E508240EF582E43400F583E005082290B2
:10187100000B30080390000EE475F0011217C60248
:1018810016F22001E97F2ED2018018EF540F249027
:10189100D43440D4FF30050BEF24BFB41A005003F9
:1018A1002461FFE50960021509050CE50C700205CC
:1018B1000B30080E90000BE475F0011217C6EF0211
:1018C10017380224797403D2088003E4C208F508AA
:1018D10090000B1217DDE4F509F50BF50CE5096035
:1018E100077F201218A480F5750AFFC202C201C247
:1018F10003C204C206C207C209121870FF700D307C
:1019010008057F001218B5AF0CAE0B22B4255FC2DB
:10191100D5C205121870FF24D0B40A00501A75F010
:101921000A780930D50508B6FF0106C6A426F620B7
:10193100D5047002D20480D924CFB41A00EF500428
:10194100C2E5D205021BA7D20280C6D20180C0D255
:101951000380BCD2D580BAD20680B47F201218A4ED
:101961002003077401B5090040F1121861FF121834
:10197100A40218DED209D2078095121861FB121851
:1019810061FA121861F94A4B700679A57A1C7BFF3E
:1019910020032EE509602A7E008E827583001217CE
:1019A1000B60060EEE650A70F0C2D5EBC0E0EAC02E
:1019B100E0E9C0E0EE121C08D0E0F9D0E0FAD0E096
:1019C100FB1216F2FF60AAEBC0E0EAC0E0E9C0E05A
:1019D1001218A4D0E02401F9D0E03400FAD0E0FBE1
:1019E100E50A0460DCD50AD98087D20380A2121BE4
:1019F100EA60F7E50A70010412143AA90A600DE5DC
:101A01000A600914F50A121C92EF60F3EA30E7024A
:101A1100F404C3995079EAF4250A0430E701E40497
:101A2100F50A800D121BEA60C1EA050A250A1214A3
:101A31003AEA90003AF030E701E4250A04D50A04B5
:101A410020060114121C08E4C0E0121C9290003A16
:101A5100E0601320E70714F012188C802204F0D004
:101A6100E014C0E07F0012188CE50A6007121883A9
:101A7100150A800B300603121883D0E00218DED05D
:101A8100E00480C4121BEA609EE50A0412143A9035
:101A9100003AEAF0E50A2006026001042404121C5F
:011AA100083C
:101AA20074FF04C0E0121C9212188CE50A20060290
:101AB2006003121883D0E0B50AE87F4512189690A9
:101AC200003AE07F2B30E7047F2DF404C0E01218C7
:101AD200A4D0E075F00A84C0F012188DD0E012187C
:101AE2008D0218DE791080027908C207C2098008C7
:101AF200D2D5790A8004790AC2D5E50A047002F5C2
:101B02000AE4FAFDFEFF121861FC7B0820021312A0
:101B12001861FD7B1030010A121861FE121861FF74
:101B22007B20EC3382D592D55013C3E43001069F5B
:101B3200FFE49EFEE42002039DFDE49CFCE4CBF85E
:101B4200C202EC700CCFCECDCCE824F8F870F38052
:101B520017C3EF33FFEE33FEED33FDEC33FCEB3313
:101B6200FB994002FB0FD8E9EB300205F8D0E0C444
:101B720048B202C0E00AEC4D4E4F78207B0070C2A2
:101B8200EAB50A0040BCC0E0121C0AD0F0D0E02046
:101B92000204C4C0E0C4B202C0F012188DD0F0D565
:101BA200F0EB0218DE1217E6197B531AE658194CAD
:101BB2004C1948421AEA4F1AF2441AF2491961437F
:101BC2001AF8551A25461A854519EF471CC55019AA
:101BD200502D19542E19772B1958231975201CAE24
:101BE2002A1910480000196FE50AB4FF03750A06A6
:101BF200121861FC121861FD121861FE121861FFC1
:101C0200900033021477790AA2D520041430060911
:101C1200B910020404B9080104A2D5200702500138
:101C2200042003689203B509005034C0E07F2030DD
:101C320004197F30A20372077206500F121C61C290
:101C420003C207C206C2097F30800F300603E9C013
:101C5200E01218A4300603D0E0F9D0E0B509CC3088
:101C620006177F30B9100C1218A47F583005077F71
:101C7200788003B908031218A43003057F2D0218D7
:101C8200A47F202009F87F2B2007F322920380CF24
:101C92007F00B40700500B2433F582E43400F5834F
:101CA200E0FF22286E756C6C2900D2021218613096
:101CB20002F8C202780930D50108F60219102D5037
:101CC2004349581218612403B405004001E4901CF2
:101CD200C093121895743A121895D2047509040229
:021CE2001AE600
:1013F000E9D2E7C933E833F892D5EDD2E7CD33EC43
:0714000033FC5002B2D522BB
:10140700EC30E7100FBF000C0EBE00080DBD000446
:101417000BEB6014A2D5EB13FCED92E7FD2274FFF2
:10142700FCFDFEFF22E480F8A2D574FF13FC7D804B
:03143700E480EF5F
:10143A00F920E73624F950037907E4F42402FBE59E
:10144A0082158270021583DBF6E024FB501BE960EB
:10145A0014E4F0E582158270021583E004F0B40A00
:0D146A0008E4F0D9EE7401F00A22C2D52288
:10147700ED33EC3392D5FA602AB4FF33EDC2E77B44
:10148700FF60067A14799CE4227A1479A520D504A2
:101497007A1479A0224E614E002B494E46002D4901
:1014A7004E4600E47A08F0A3DAFC7B00740722C0FA
:1014B70083C082ECC0E0EDC0E0EEC0E0EFC0E0EA40
:1014C70075F010A4CAABF075F04DA42BFBE435F012
:1014D700FCEA2410FAEB34C5FBEC34D9FCEDC2E787
:1014E700FF75F056A4F42411C5F0F434C58FF0A4A9
:1014F7002AE5F03BE43CF020E7141216B2D0E0FFF7
:10150700D0E0FED0E0FDD0E0FC1213158014F40407
:101517001216B2D0E0FFD0E0FED0E0FDD0E0FC1222
:10152700157CD082D083E0FAEDD2E7CD33EC3324BB
:1015370082FBE4C3CF33CFCE33CECD33CD33DBF312
:101547007B0775F00A846004F0A31B0AE5F0F0A39B
:101557008FF0740AA4FFACF08EF0740AA42CFEACD2
:10156700F050010C8DF0740AA42CFDE435F0F0A3C3
:05157700DBDE74072219
:10157C00EC4D6011E8497017ED33EC3304600DE469
:10158C00FCFFFEFD22E933E8330470F80214251247
:10159C0013F058046009E4CC248150062850090249
:1015AC00142F28400302142CC0E0EB4A7044B9807D
:1015BC0006D0E0FB02141BEF4E701CBD8008EBFF45
:1015CC00EAFEE9FD80EBE98DF0A4FEE5F00216657C
:1015DC00E9CDF9EAFEEBFFEF89F0A4FCE5F0CE894A
:1015EC00F0A42EFFE435F0CD89F0A42DFEE435F007
:1015FC008067EF4E7005BD80D780C3EF8BF0A4AC35
:10160C00F0EE8BF0A42CFCE435F0F8EF8AF0A42C6F
:10161C00E5F038FCE433CB8DF0A42CFCE5F03BF882
:10162C00EE8AF0A42CFCE5F038F8E433CF89F0A472
:10163C002CFCE5F038CF3400CE89F0A42FFFE5F078
:10164C003EFEE433C98DF0A42EFEE5F039CD8AF0D0
:10165C00A42FFFE5F03EFEE43DFD33D0E0FB500748
:10166C000BBB000F02142FEC2CFCEF33FFEE33FE00
:06167C00ED33FD0214072E
:101682003F8000004120000042C80000447A000070
:10169200461C400047C35000497424004B189680F2
:1016A2004CBEBC205A0E1BCA6753C21C749DC5AEE9
:1016B200FB60065407601C23231216E0EB543860CB
:1016C200091216CC1216DB12157CECF8EDF9EEFAC3
:1016D200EFCB22EB1216DB80F1543803241C901658
:1016E20082FE93FC0EEE93FD0EEE930ECE93FF223E
:1020FA0002244CE493A3F8E493A34003F68001F28C
:10210A0008DFF48029E493A3F85407240CC8C333E6
:10211A00C4540F4420C8834004F456800146F6DFB5
:10212A00E4800B0102040810204080902537E47EE9
:10213A00019360BCA3FF543F30E509541FFEE493AA
:10214A00A360010ECF54C025E060A840B8E493A371
:10215A00FAE493A3F8E493A3C8C582C8CAC583CA9C
:10216A00F0A3C8C582C8CAC583CADFE9DEE780BE54
:01254A000090
:1016F200BB010689828A83E0225002E722BBFE02F6
:09170200E32289828A83E4932228
:10170B00BB010CE58229F582E5833AF583E0225093
:10171B0006E92582F8E622BBFE06E92582F8E222DD
:0D172B00E58229F582E5833AF583E49322F7
:10173800BB010689828A83F0225002F722BBFE0190
:02174800F3228A
:10174A00C2D5EC30E709B2D5E4C39DFDE49CFCEEBA
:10175A0030E715B2D5E4C39FFFE49EFE12180CC30E
:10176A00E49DFDE49CFC800312180C30D507C3E409
:06177A009FFFE49EFE2229
:10178000A3F8E0C5F025F0F0E5821582700215831C
:06179000E0C838F0E82279
:0E179600C3E49FFFE49EFEE49DFDE49CFC2264
:1017A400EB9FF5F0EA9E42F0E99D42F0EC6480C8BC
:0617B40064809845F0225C
:0C17BA00ECF0A3EDF0A3EEF0A3EFF022A2
:1017C600F8E0FBA3A3E0F925F0F0E58215827002AC
:0717D6001583E0FA38F02250
:0917DD00EBF0A3EAF0A3E9F0220D
:1017E600D083D082F8E4937012740193700DA3A392
:1017F60093F8740193F5828883E4737402936860A6
:06180600EFA3A3A380DFA5
:10247900EFB40A07740D122484740A309811A899CC
:10248900B8130CC2983098FDA899C298B811F630C3
:0724990099FDC299F599229B
:10180C00BC000BBE0029EF8DF084FFADF022E4CCC0
:10181C00F875F008EF2FFFEE33FEEC33FCEE9DEC89
:10182C00984005FCEE9DFE0FD5F0E9E4CEFD22EDCF
:10183C00F8F5F0EE8420D21CFEADF075F008EF2F19
:10184C00FFED33FD4007985006D5F0F222C398FD0A
:05185C000FD5F0EA22A7
:00000001FF
